:020000040800F2
:100000009806002029020008DF0400083D040008CB
:10001000DD040008E3020008790700080000000082
:100020000000000000000000000000007106000851
:10003000E502000800000000110600087306000831
:10004000430200085105000843020008430200086B
:10005000430200084302000843020008430200086C
:10006000430200084302000843020008430200085C
:10007000430200084302000843020008430200084C
:10008000430200084302000843020008430200083C
:10009000430200084302000843020008430200082C
:1000A000430200084302000843020008430200081C
:1000B000430200084302000843020008430200080C
:1000C00043020008430200084302000843020008FC
:1000D00043020008430200084302000843020008EC
:1000E00043020008430200084302000843020008DC
:1000F00043020008430200084302000843020008CC
:1001000043020008430200084302000843020008BB
:1001100043020008430200084302000843020008AB
:10012000430200084302000843020008430200089B
:10013000430200084302000843020008430200088B
:10014000430200084302000843020008430200087B
:10015000430200084302000843020008430200086B
:10016000430200084302000843020008430200085B
:10017000430200084302000843020008430200084B
:10018000430200084302000800F002F800F03CF8C7
:100190000AA090E8000C82448344AAF10107DA45E2
:1001A00001D100F031F8AFF2090EBAE80F0013F0F8
:1001B000010F18BFFB1A43F001031847EC050000BC
:1001C0000C060000103A24BF78C878C1FAD852074C
:1001D00024BF30C830C144BF04680C6070470000C1
:1001E0000023002400250026103A28BF78C1FBD840
:1001F000520728BF30C148BF0B6070471FB500F0E1
:10020000CDFA1FBD10B510BD00F031F81146FFF753
:10021000F5FF00F0B3FA00F04FF803B4FFF7F2FF78
:1002200003BC00F057F80000094880470948004720
:10023000FEE7FEE7FEE7FEE7FEE7FEE7FEE7FEE796
:10024000FEE7FEE704480549054A064B70470000F3
:100250007506000889010008980000209806002013
:10026000980200209802002070477047704775463A
:1002700000F02CF8AE4605006946534620F0070012
:10028000854618B020B5FFF7DDFFBDE820404FF0F0
:1002900000064FF000074FF000084FF0000B21F070
:1002A0000701AC46ACE8C009ACE8C009ACE8C0093D
:1002B000ACE8C0098D46704710B50446AFF3008026
:1002C0002046BDE81040FFF7A8BF00000048704777
:1002D0003400002001491820ABBEFEE726000200D2
:1002E0007047FEE770470000014908607047000052
:1002F000143C0140034A0146002012680A4218BF1C
:1003000001207047143C0140837921490268002B89
:1003100034D00B6823EA02020A60091D0A680368E8
:100320009A430A60017901F1804101F59E310A6822
:1003300003681A430A60174B1968026891431960F1
:100340001A1D1168D0F800C021EA0C011160417932
:10035000102908D001F1804101F59E310A6800683A
:100360001043086070471968D0F800C041EA0C01DA
:10037000196011680068084310607047007900F147
:10038000804000F59E300168914301607047000095
:10039000003C0140083C01402DE9F001002201250C
:1003A0005FF00306D1F800C005FA02F30CEA030C73
:1003B0009C4537D107684FEA420C06FA0CF4A74374
:1003C00007600F79D0F8008007FA0CF747EA0807B2
:1003D00007600F79012F18BF022F17D1876827EA0E
:1003E000040787604F79D0F8088007FA0CF747EACE
:1003F00008078760476827EA0303436043688F79EB
:1004000007FA02F7BFB243EA07034360C36823EA6F
:100410000403C360CB7903FA0CF3D0F80CC043EAB1
:100420000C03C36002F10102102ABBD3BDE8F00146
:100430007047002A14BF018341837047FEE7000024
:100440002DE9F34F0546234883B0425D04998A4263
:1004500004BF05B0BDE8F08F41551F4800F1060903
:10046000017800F1100751BB012600240670A04658
:1004700000F1200A4FF0030BCDF80080CDF8048086
:100480005AF82400012100F0DBF839F814008DF847
:1004900004608DF805B08DF8068000908DF8076037
:1004A00057F824006946FFF777FF39F8141057F81A
:1004B00024000022FFF7BDFF641C042CDCDB39F8AC
:1004C000151057F82500049A05B0BDE8F04FFFF766
:1004D000B0BF00000500002004000020FEE77047C8
:1004E00010B4C27801780F244FF0010C0AB3174AF8
:1004F000126801F1E02102F4E062C2F5E062C2F3A9
:100500000722C2F10403D44042789A408378234002
:100510001A43120181F80024007800F01F010CFA40
:1005200001F14009800000F1E020C0F8001110BC8A
:10053000704701F01F000CFA00F04909890001F131
:10054000E021C1F8800110BC704700000CED00E014
:1005500010B54FF48030FFF7CDFE002808BF10BD66
:100560004FF48030FFF7C0FE06490868002808BF36
:1005700010BD054840680968C0F38000BDE8104020
:10058000084700000000002000700040F0B583B074
:1005900000240E46074601210094019408070294A6
:1005A00000F05AF84FF4803000908DF8044010208D
:1005B0008DF8050001258DF806506846FFF7A4FE6A
:1005C0008DF808508DF809408DF80A408DF80B50D1
:1005D00002A8FFF785FF384600F010F8012000F070
:1005E00007F80248066003B0F0BD000000000020DC
:1005F000014908617047000000000E4203490A6883
:1006000022F0E002104308607047000000700040D4
:10061000704710B548B100210846FFF711FF0121CE
:10062000BDE810400846FFF70BBF01210020FFF78F
:1006300007FF0021BDE810400120FFF701BF0000C7
:10064000044A0029116814BF084321EA0000106021
:100650007047000030380240044A0029116814BF76
:10066000084321EA00001060704700004038024053
:1006700070477047374882B0016841F470010160EB
:100680003548016841F001010160344900230B60E5
:10069000026822F4102222F08072026000F1040C41
:1006A0002F4ACCF80020026822F4802202600A1D42
:1006B000136001930093026842F480320260026882
:1006C00002F400320092019A521C0192009A1AB967
:1006D000019AB2F5A04FF2D1026812F4003F08BFB0
:1006E000009331D0012200921E4A136843F08053D8
:1006F00013601D4A136843F4404313600A680A609C
:100700000A6842F400420A600A6842F4A0520A6091
:10071000164ACCF80020026842F08072026002683B
:1007200012F0007FFBD0124A40F20570106008689A
:1007300020F003000860086840F0020008600868C4
:1007400000F00C000828FAD10A494FF00060086058
:1007500002B0704788ED00E00038024008380240DF
:100760001030002440380240007000400854400718
:10077000003C024008ED00E0FEE7000001210020FF
:10078000FFF75EFE00210120FFF75AFE02496020BC
:10079000FFF7FCFEFEE70000130600084FF0407074
:1007A000E1EE100A70470000C807000800000020B2
:1007B00034000000C4010008FC07000834000020D9
:1007C00064060000E00100080000000000000000D6
:1007D00000000002000408001000000000140240A5
:1007E0000014024000040240000402402000000007
:0C07F000200000000200000002000000D9
:040000050800018965
:00000001FF
